{
  "_format": "hh-sol-artifact-1",
  "contractName": "WavePortal",
  "sourceName": "contracts/MyWavePortal.sol",
  "abi": [
    {
      "inputs": [],
      "stateMutability": "nonpayable",
      "type": "constructor"
    },
    {
      "inputs": [],
      "name": "getTotalWaves",
      "outputs": [
        {
          "internalType": "uint256",
          "name": "",
          "type": "uint256"
        }
      ],
      "stateMutability": "view",
      "type": "function"
    },
    {
      "inputs": [],
      "name": "getWaveCount",
      "outputs": [
        {
          "internalType": "uint256",
          "name": "",
          "type": "uint256"
        }
      ],
      "stateMutability": "view",
      "type": "function"
    },
    {
      "inputs": [],
      "name": "wave",
      "outputs": [],
      "stateMutability": "nonpayable",
      "type": "function"
    }
  ],
  "bytecode": "0x608060405234801561001057600080fd5b5061003c60405180606001604052806025815260200161097b6025913961004160201b6102861760201c565b6101c4565b6100dd816040516024016100559190610142565b6040516020818303038152906040527f41304fac000000000000000000000000000000000000000000000000000000007bffffffffffffffffffffffffffffffffffffffffffffffffffffffff19166020820180517bffffffffffffffffffffffffffffffffffffffffffffffffffffffff83818316178352505050506100e060201b60201c565b50565b60008151905060006a636f6e736f6c652e6c6f679050602083016000808483855afa5050505050565b600061011482610164565b61011e818561016f565b935061012e818560208601610180565b610137816101b3565b840191505092915050565b6000602082019050818103600083015261015c8184610109565b905092915050565b600081519050919050565b600082825260208201905092915050565b60005b8381101561019e578082015181840152602081019050610183565b838111156101ad576000848401525b50505050565b6000601f19601f8301169050919050565b6107a8806101d36000396000f3fe608060405234801561001057600080fd5b50600436106100415760003560e01c80631517c561146100465780636fe15b44146100645780639a2cdc081461006e575b600080fd5b61004e61008c565b60405161005b9190610636565b60405180910390f35b61006c610152565b005b61007661023b565b6040516100839190610636565b60405180910390f35b600061010d6040518060400160405280600f81526020017f257320686173202564207761766573000000000000000000000000000000000081525033600260003373ffffffffffffffffffffffffffffffffffffffff1673ffffffffffffffffffffffffffffffffffffffff1681526020019081526020016000205461031f565b600260003373ffffffffffffffffffffffffffffffffffffffff1673ffffffffffffffffffffffffffffffffffffffff16815260200190815260200160002054905090565b6001600080828254610164919061066d565b925050819055506001600260003373ffffffffffffffffffffffffffffffffffffffff1673ffffffffffffffffffffffffffffffffffffffff168152602001908152602001600020546101b7919061066d565b600260003373ffffffffffffffffffffffffffffffffffffffff1673ffffffffffffffffffffffffffffffffffffffff168152602001908152602001600020819055506102396040518060400160405280600d81526020017f2573206861732077617665642100000000000000000000000000000000000000815250336103be565b565b600061027e6040518060400160405280601781526020017f5765206861766520256420746f74616c2077617665732100000000000000000081525060005461045a565b600054905090565b61031c8160405160240161029a9190610576565b6040516020818303038152906040527f41304fac000000000000000000000000000000000000000000000000000000007bffffffffffffffffffffffffffffffffffffffffffffffffffffffff19166020820180517bffffffffffffffffffffffffffffffffffffffffffffffffffffffff83818316178352505050506104f6565b50565b6103b9838383604051602401610337939291906105c8565b6040516020818303038152906040527f07c81217000000000000000000000000000000000000000000000000000000007bffffffffffffffffffffffffffffffffffffffffffffffffffffffff19166020820180517bffffffffffffffffffffffffffffffffffffffffffffffffffffffff83818316178352505050506104f6565b505050565b61045682826040516024016103d4929190610598565b6040516020818303038152906040527f319af333000000000000000000000000000000000000000000000000000000007bffffffffffffffffffffffffffffffffffffffffffffffffffffffff19166020820180517bffffffffffffffffffffffffffffffffffffffffffffffffffffffff83818316178352505050506104f6565b5050565b6104f28282604051602401610470929190610606565b6040516020818303038152906040527f9710a9d0000000000000000000000000000000000000000000000000000000007bffffffffffffffffffffffffffffffffffffffffffffffffffffffff19166020820180517bffffffffffffffffffffffffffffffffffffffffffffffffffffffff83818316178352505050506104f6565b5050565b60008151905060006a636f6e736f6c652e6c6f679050602083016000808483855afa5050505050565b610528816106c3565b82525050565b600061053982610651565b610543818561065c565b93506105538185602086016106ff565b61055c81610761565b840191505092915050565b610570816106f5565b82525050565b60006020820190508181036000830152610590818461052e565b905092915050565b600060408201905081810360008301526105b2818561052e565b90506105c1602083018461051f565b9392505050565b600060608201905081810360008301526105e2818661052e565b90506105f1602083018561051f565b6105fe6040830184610567565b949350505050565b60006040820190508181036000830152610620818561052e565b905061062f6020830184610567565b9392505050565b600060208201905061064b6000830184610567565b92915050565b600081519050919050565b600082825260208201905092915050565b6000610678826106f5565b9150610683836106f5565b9250827fffffffffffffffffffffffffffffffffffffffffffffffffffffffffffffffff038211156106b8576106b7610732565b5b828201905092915050565b60006106ce826106d5565b9050919050565b600073ffffffffffffffffffffffffffffffffffffffff82169050919050565b6000819050919050565b60005b8381101561071d578082015181840152602081019050610702565b8381111561072c576000848401525b50505050565b7f4e487b7100000000000000000000000000000000000000000000000000000000600052601160045260246000fd5b6000601f19601f830116905091905056fea2646970667358221220c6f4fbb32d555456e3ebb0132725fb977a4a682bb57e10c5b5d18108dfcb902a64736f6c63430008040033596f20796f2c204920616d206120636f6e747261637420616e64204920616d20736d617274",
  "linkReferences": {},
  "deployedLinkReferences": {}
}